:020000040000FA
:020000001128C5
:040002000034003492
:08000800C900030E8301D000C2
:100010000B1D0B2815290C1C0E28EC288C1C090024
:10002000042983160612861205118617061700305A
:100030008700831203179E019F019E141E148312D2
:1000400003138316073081008312D7308100831297
:10005000031331309000DC308E000B308F0083169C
:10006000031350309F008312031341309F0083120B
:100070000313831603130C14831203130C1083123F
:1000800003138B160B118B178312031305118612A2
:100090000613861306120301B901B801C001C1019C
:1000A000C201C301B501B601D101D501DC30D500D3
:1000B0001E30D3000F30D2000030D400C400013015
:0800C000C5000230C600030177
:0800C8004408540203197128D9
:1000D000450854020319AC28460854020319CE28D7
:1000E00064280030D400DC30D500A321A3215108BE
:1000F000B8005308D102031C7F283B2180285721D8
:10010000861F92287821861F9228B7014814481C20
:100110008B284810B701460837020318C828861BE9
:100120008728A328061FA3287821061FA328B70124
:100130004814481C9D284810B70146083702031888
:10014000A628061B9928B701481064285721B70133
:100150000130D400B430D5005208B8004608370248
:1001600003187128861FBA287821861FBA28B7017C
:10017000D20AC228061F64287821061F6428B70106
:10018000D203C228B701861BC228061BC2286428D6
:100190005721B7010230D400B430D5005308B8005D
:1001A0004608370203187128861FDC287821861F2D
:1001B000DC28B701D30AE428061F64287821061F2B
:1001C0006428B701D303E4285308B800B701861B9D
:1001D000E628061BE628642810100C10DC308E0080
:1001E0000B308F003618F6283614F7283610B50A6B
:1001F0003508023C031DFE28B501B70A1014500E45
:100200008300C90E490E0E2834180929051134142B
:100210000B2905153410831203138C10831203135A
:10022000500E8300C90E490E090044085402031DF4
:100230001E299F149F181A291E08D10038088E21E4
:1002400039182B29061201308A00410883218700C2
:10025000391486163329861201308A00400883211A
:10026000870039100616550881000B11500E8300C7
:10027000C90E490E0B28C900030E8301D000831656
:1002800003130511831603138C1483120313053013
:100290009200831203138C10831203130B17831223
:1002A00003135614500E8300C90E490E080083161E
:1002B00003130515831603138C10831203138C107C
:1002C000831203135610500E8300C90E490E080006
:1002D0000830B1002F30B2000330B300B10B7129E8
:1002E000B20B7329B30B6E2975297629772908007B
:1002F000E730B1000430B200B10B7C29B20B7C298D
:1003000081290000080082075F3444346B346E3466
:1003100074343E343F344C347F347E34C300031095
:10032000633C031CA2290030C2000A30C20AC30287
:100330000318962903199629C203C3074208C1006E
:100340004308C00008001E30B1004F30B200B10BAE
:0C035000AA29B20BA729AC290000080064
:02400E00F73F7A
:00000001FF
